{
  "_format": "hh-sol-artifact-1",
  "contractName": "Marketplace",
  "sourceName": "src/backend/contracts/Marketplace.sol",
  "abi": [
    {
      "inputs": [
        {
          "internalType": "uint256",
          "name": "_feePercent",
          "type": "uint256"
        }
      ],
      "stateMutability": "nonpayable",
      "type": "constructor"
    },
    {
      "anonymous": false,
      "inputs": [
        {
          "indexed": false,
          "internalType": "uint256",
          "name": "itemId",
          "type": "uint256"
        },
        {
          "indexed": true,
          "internalType": "address",
          "name": "nft",
          "type": "address"
        },
        {
          "indexed": false,
          "internalType": "uint256",
          "name": "tokenId",
          "type": "uint256"
        },
        {
          "indexed": false,
          "internalType": "uint256",
          "name": "price",
          "type": "uint256"
        },
        {
          "indexed": true,
          "internalType": "address",
          "name": "seller",
          "type": "address"
        },
        {
          "indexed": true,
          "internalType": "address",
          "name": "buyer",
          "type": "address"
        }
      ],
      "name": "Bought",
      "type": "event"
    },
    {
      "anonymous": false,
      "inputs": [
        {
          "indexed": false,
          "internalType": "uint256",
          "name": "itemId",
          "type": "uint256"
        },
        {
          "indexed": true,
          "internalType": "address",
          "name": "nft",
          "type": "address"
        },
        {
          "indexed": false,
          "internalType": "uint256",
          "name": "tokenId",
          "type": "uint256"
        },
        {
          "indexed": false,
          "internalType": "uint256",
          "name": "price",
          "type": "uint256"
        },
        {
          "indexed": true,
          "internalType": "address",
          "name": "seller",
          "type": "address"
        }
      ],
      "name": "Offered",
      "type": "event"
    },
    {
      "inputs": [],
      "name": "feeAccount",
      "outputs": [
        {
          "internalType": "address payable",
          "name": "",
          "type": "address"
        }
      ],
      "stateMutability": "view",
      "type": "function"
    },
    {
      "inputs": [],
      "name": "feePercent",
      "outputs": [
        {
          "internalType": "uint256",
          "name": "",
          "type": "uint256"
        }
      ],
      "stateMutability": "view",
      "type": "function"
    },
    {
      "inputs": [],
      "name": "getLatestPrice",
      "outputs": [
        {
          "internalType": "int256",
          "name": "",
          "type": "int256"
        }
      ],
      "stateMutability": "view",
      "type": "function"
    },
    {
      "inputs": [
        {
          "internalType": "uint256",
          "name": "_itemId",
          "type": "uint256"
        }
      ],
      "name": "getTotalPrice",
      "outputs": [
        {
          "internalType": "uint256",
          "name": "",
          "type": "uint256"
        }
      ],
      "stateMutability": "view",
      "type": "function"
    },
    {
      "inputs": [],
      "name": "itemCount",
      "outputs": [
        {
          "internalType": "uint256",
          "name": "",
          "type": "uint256"
        }
      ],
      "stateMutability": "view",
      "type": "function"
    },
    {
      "inputs": [
        {
          "internalType": "uint256",
          "name": "",
          "type": "uint256"
        }
      ],
      "name": "items",
      "outputs": [
        {
          "internalType": "uint256",
          "name": "itemId",
          "type": "uint256"
        },
        {
          "internalType": "contract IERC721",
          "name": "nft",
          "type": "address"
        },
        {
          "internalType": "uint256",
          "name": "tokenId",
          "type": "uint256"
        },
        {
          "internalType": "uint256",
          "name": "price",
          "type": "uint256"
        },
        {
          "internalType": "address payable",
          "name": "seller",
          "type": "address"
        },
        {
          "internalType": "bool",
          "name": "sold",
          "type": "bool"
        }
      ],
      "stateMutability": "view",
      "type": "function"
    },
    {
      "inputs": [
        {
          "internalType": "contract IERC721",
          "name": "_nft",
          "type": "address"
        },
        {
          "internalType": "uint256",
          "name": "_tokenId",
          "type": "uint256"
        },
        {
          "internalType": "uint256",
          "name": "_price",
          "type": "uint256"
        }
      ],
      "name": "makeItem",
      "outputs": [],
      "stateMutability": "nonpayable",
      "type": "function"
    },
    {
      "inputs": [
        {
          "internalType": "uint256",
          "name": "_itemId",
          "type": "uint256"
        }
      ],
      "name": "purchaseItem",
      "outputs": [],
      "stateMutability": "payable",
      "type": "function"
    }
  ],
  "bytecode": "0x60c060405234801561001057600080fd5b506040516200140938038062001409833981810160405281019061003491906100eb565b60016000819055503373ffffffffffffffffffffffffffffffffffffffff1660808173ffffffffffffffffffffffffffffffffffffffff1660601b815250508060a08181525050738a753747a1fa494ec906ce90e9f37563a8af630e600160006101000a81548173ffffffffffffffffffffffffffffffffffffffff021916908373ffffffffffffffffffffffffffffffffffffffff16021790555050610135565b6000815190506100e58161011e565b92915050565b6000602082840312156100fd57600080fd5b600061010b848285016100d6565b91505092915050565b6000819050919050565b61012781610114565b811461013257600080fd5b50565b60805160601c60a05161129d6200016c6000396000818161021c015261037d0152600081816101f201526105a3015261129d6000f3fe60806040526004361061007b5760003560e01c8063bfb231d21161004e578063bfb231d21461012c578063ca7dd3751461016e578063d38ea5bf146101ab578063fa00afc7146101c75761007b565b806365e17c9d146100805780636bfb0d01146100ab5780637fd6f15c146100d65780638e15f47314610101575b600080fd5b34801561008c57600080fd5b506100956101f0565b6040516100a29190610cdb565b60405180910390f35b3480156100b757600080fd5b506100c0610214565b6040516100cd9190610de8565b60405180910390f35b3480156100e257600080fd5b506100eb61021a565b6040516100f89190610de8565b60405180910390f35b34801561010d57600080fd5b5061011661023e565b6040516101239190610d2d565b60405180910390f35b34801561013857600080fd5b50610153600480360381019061014e9190610b32565b6102ee565b60405161016596959493929190610e03565b60405180910390f35b34801561017a57600080fd5b5061019560048036038101906101909190610b32565b610377565b6040516101a29190610de8565b60405180910390f35b6101c560048036038101906101c09190610b32565b6103da565b005b3480156101d357600080fd5b506101ee60048036038101906101e99190610ae3565b6107a8565b005b7f000000000000000000000000000000000000000000000000000000000000000081565b60025481565b7f000000000000000000000000000000000000000000000000000000000000000081565b600080600160009054906101000a900473ffffffffffffffffffffffffffffffffffffffff1673ffffffffffffffffffffffffffffffffffffffff1663feaf968c6040518163ffffffff1660e01b815260040160a06040518083038186803b1580156102a957600080fd5b505afa1580156102bd573d6000803e3d6000fd5b505050506040513d601f19601f820116820180604052508101906102e19190610b5b565b5050509150508091505090565b60036020528060005260406000206000915090508060000154908060010160009054906101000a900473ffffffffffffffffffffffffffffffffffffffff16908060020154908060030154908060040160009054906101000a900473ffffffffffffffffffffffffffffffffffffffff16908060040160149054906101000a900460ff16905086565b600060647f000000000000000000000000000000000000000000000000000000000000000060646103a89190610eac565b60036000858152602001908152602001600020600301546103c99190610f33565b6103d39190610f02565b9050919050565b60026000541415610420576040517f08c379a000000000000000000000000000000000000000000000000000000000815260040161041790610dc8565b60405180910390fd5b6002600081905550600061043382610377565b9050600060036000848152602001908152602001600020905060008311801561045e57506002548311155b61049d576040517f08c379a000000000000000000000000000000000000000000000000000000000815260040161049490610da8565b60405180910390fd5b813410156104e0576040517f08c379a00000000000000000000000000000000000000000000000000000000081526004016104d790610d88565b60405180910390fd5b8060040160149054906101000a900460ff1615610532576040517f08c379a000000000000000000000000000000000000000000000000000000000815260040161052990610d48565b60405180910390fd5b8060040160009054906101000a900473ffffffffffffffffffffffffffffffffffffffff1673ffffffffffffffffffffffffffffffffffffffff166108fc82600301549081150290604051600060405180830381858888f193505050501580156105a0573d6000803e3d6000fd5b507f000000000000000000000000000000000000000000000000000000000000000073ffffffffffffffffffffffffffffffffffffffff166108fc8260030154846105eb9190610f8d565b9081150290604051600060405180830381858888f19350505050158015610616573d6000803e3d6000fd5b5060018160040160146101000a81548160ff0219169083151502179055508060010160009054906101000a900473ffffffffffffffffffffffffffffffffffffffff1673ffffffffffffffffffffffffffffffffffffffff166323b872dd303384600201546040518463ffffffff1660e01b815260040161069993929190610cf6565b600060405180830381600087803b1580156106b357600080fd5b505af11580156106c7573d6000803e3d6000fd5b505050503373ffffffffffffffffffffffffffffffffffffffff168160040160009054906101000a900473ffffffffffffffffffffffffffffffffffffffff1673ffffffffffffffffffffffffffffffffffffffff168260010160009054906101000a900473ffffffffffffffffffffffffffffffffffffffff1673ffffffffffffffffffffffffffffffffffffffff167f8b4c9c8a607d67b321582dd8461041b1dc2ceeca70c8b7f37f8e02095cf2e76d868560020154866003015460405161079393929190610e64565b60405180910390a45050600160008190555050565b600260005414156107ee576040517f08c379a00000000000000000000000000000000000000000000000000000000081526004016107e590610dc8565b60405180910390fd5b600260008190555060008111610839576040517f08c379a000000000000000000000000000000000000000000000000000000000815260040161083090610d68565b60405180910390fd5b6002600081548092919061084c90611071565b91905055508273ffffffffffffffffffffffffffffffffffffffff166323b872dd3330856040518463ffffffff1660e01b815260040161088e93929190610cf6565b600060405180830381600087803b1580156108a857600080fd5b505af11580156108bc573d6000803e3d6000fd5b505050506040518060c0016040528060025481526020018473ffffffffffffffffffffffffffffffffffffffff1681526020018381526020018281526020013373ffffffffffffffffffffffffffffffffffffffff168152602001600015158152506003600060025481526020019081526020016000206000820151816000015560208201518160010160006101000a81548173ffffffffffffffffffffffffffffffffffffffff021916908373ffffffffffffffffffffffffffffffffffffffff160217905550604082015181600201556060820151816003015560808201518160040160006101000a81548173ffffffffffffffffffffffffffffffffffffffff021916908373ffffffffffffffffffffffffffffffffffffffff16021790555060a08201518160040160146101000a81548160ff0219169083151502179055509050503373ffffffffffffffffffffffffffffffffffffffff168373ffffffffffffffffffffffffffffffffffffffff167f655a0cf9c8db81512be9a76dc1c5ae5380b8816ce6ad659cd61b715e2999d59a6002548585604051610a6593929190610e64565b60405180910390a36001600081905550505050565b600081359050610a898161120b565b92915050565b600081519050610a9e81611222565b92915050565b600081359050610ab381611239565b92915050565b600081519050610ac881611239565b92915050565b600081519050610add81611250565b92915050565b600080600060608486031215610af857600080fd5b6000610b0686828701610a7a565b9350506020610b1786828701610aa4565b9250506040610b2886828701610aa4565b9150509250925092565b600060208284031215610b4457600080fd5b6000610b5284828501610aa4565b91505092915050565b600080600080600060a08688031215610b7357600080fd5b6000610b8188828901610ace565b9550506020610b9288828901610a8f565b9450506040610ba388828901610ab9565b9350506060610bb488828901610ab9565b9250506080610bc588828901610ace565b9150509295509295909350565b610bdb81610fd3565b82525050565b610bea81610fc1565b82525050565b610bf981610fe5565b82525050565b610c088161104d565b82525050565b610c1781611003565b82525050565b6000610c2a601183610e9b565b9150610c3582611118565b602082019050919050565b6000610c4d601f83610e9b565b9150610c5882611141565b602082019050919050565b6000610c70603383610e9b565b9150610c7b8261116a565b604082019050919050565b6000610c93601283610e9b565b9150610c9e826111b9565b602082019050919050565b6000610cb6601f83610e9b565b9150610cc1826111e2565b602082019050919050565b610cd58161102d565b82525050565b6000602082019050610cf06000830184610bd2565b92915050565b6000606082019050610d0b6000830186610be1565b610d186020830185610be1565b610d256040830184610ccc565b949350505050565b6000602082019050610d426000830184610c0e565b92915050565b60006020820190508181036000830152610d6181610c1d565b9050919050565b60006020820190508181036000830152610d8181610c40565b9050919050565b60006020820190508181036000830152610da181610c63565b9050919050565b60006020820190508181036000830152610dc181610c86565b9050919050565b60006020820190508181036000830152610de181610ca9565b9050919050565b6000602082019050610dfd6000830184610ccc565b92915050565b600060c082019050610e186000830189610ccc565b610e256020830188610bff565b610e326040830187610ccc565b610e3f6060830186610ccc565b610e4c6080830185610bd2565b610e5960a0830184610bf0565b979650505050505050565b6000606082019050610e796000830186610ccc565b610e866020830185610ccc565b610e936040830184610ccc565b949350505050565b600082825260208201905092915050565b6000610eb78261102d565b9150610ec28361102d565b9250827fffffffffffffffffffffffffffffffffffffffffffffffffffffffffffffffff03821115610ef757610ef66110ba565b5b828201905092915050565b6000610f0d8261102d565b9150610f188361102d565b925082610f2857610f276110e9565b5b828204905092915050565b6000610f3e8261102d565b9150610f498361102d565b9250817fffffffffffffffffffffffffffffffffffffffffffffffffffffffffffffffff0483118215151615610f8257610f816110ba565b5b828202905092915050565b6000610f988261102d565b9150610fa38361102d565b925082821015610fb657610fb56110ba565b5b828203905092915050565b6000610fcc8261100d565b9050919050565b6000610fde8261100d565b9050919050565b60008115159050919050565b6000610ffc82610fc1565b9050919050565b6000819050919050565b600073ffffffffffffffffffffffffffffffffffffffff82169050919050565b6000819050919050565b600069ffffffffffffffffffff82169050919050565b60006110588261105f565b9050919050565b600061106a8261100d565b9050919050565b600061107c8261102d565b91507fffffffffffffffffffffffffffffffffffffffffffffffffffffffffffffffff8214156110af576110ae6110ba565b5b600182019050919050565b7f4e487b7100000000000000000000000000000000000000000000000000000000600052601160045260246000fd5b7f4e487b7100000000000000000000000000000000000000000000000000000000600052601260045260246000fd5b7f6974656d20616c726561647920736f6c64000000000000000000000000000000600082015250565b7f5072696365206d7573742062652067726561746572207468616e207a65726f00600082015250565b7f6e6f7420656e6f75676820657468657220746f20636f766572206974656d207060008201527f7269636520616e64206d61726b65742066656500000000000000000000000000602082015250565b7f4974656d20646f65736e27742065786973740000000000000000000000000000600082015250565b7f5265656e7472616e637947756172643a207265656e7472616e742063616c6c00600082015250565b61121481610ff1565b811461121f57600080fd5b50565b61122b81611003565b811461123657600080fd5b50565b6112428161102d565b811461124d57600080fd5b50565b61125981611037565b811461126457600080fd5b5056fea264697066735822122062d21053a3c26bb7b07a070236d15b717b883112b3ddd3076fe46b33ae361a2464736f6c63430008040033",
  "linkReferences": {},
  "deployedLinkReferences": {}
}